{
  "contractName": "Voting",
  "abi": [
    {
      "inputs": [],
      "stateMutability": "nonpayable",
      "type": "constructor"
    },
    {
      "inputs": [],
      "name": "admin",
      "outputs": [
        {
          "internalType": "address",
          "name": "",
          "type": "address"
        }
      ],
      "stateMutability": "view",
      "type": "function",
      "constant": true
    },
    {
      "inputs": [
        {
          "internalType": "address",
          "name": "",
          "type": "address"
        }
      ],
      "name": "voters",
      "outputs": [
        {
          "internalType": "bool",
          "name": "",
          "type": "bool"
        }
      ],
      "stateMutability": "view",
      "type": "function",
      "constant": true
    },
    {
      "inputs": [
        {
          "internalType": "address[]",
          "name": "_voters",
          "type": "address[]"
        }
      ],
      "name": "addVoters",
      "outputs": [],
      "stateMutability": "nonpayable",
      "type": "function"
    },
    {
      "inputs": [
        {
          "internalType": "string",
          "name": "name",
          "type": "string"
        },
        {
          "internalType": "string[]",
          "name": "_choices",
          "type": "string[]"
        },
        {
          "internalType": "uint256",
          "name": "offset",
          "type": "uint256"
        }
      ],
      "name": "createBallot",
      "outputs": [],
      "stateMutability": "nonpayable",
      "type": "function"
    },
    {
      "inputs": [
        {
          "internalType": "uint256",
          "name": "ballotId",
          "type": "uint256"
        },
        {
          "internalType": "uint256",
          "name": "choiceId",
          "type": "uint256"
        }
      ],
      "name": "vote",
      "outputs": [],
      "stateMutability": "nonpayable",
      "type": "function"
    },
    {
      "inputs": [
        {
          "internalType": "uint256",
          "name": "ballotId",
          "type": "uint256"
        }
      ],
      "name": "results",
      "outputs": [
        {
          "components": [
            {
              "internalType": "uint256",
              "name": "id",
              "type": "uint256"
            },
            {
              "internalType": "string",
              "name": "name",
              "type": "string"
            },
            {
              "internalType": "uint256",
              "name": "votes",
              "type": "uint256"
            }
          ],
          "internalType": "struct Voting.Choice[]",
          "name": "",
          "type": "tuple[]"
        }
      ],
      "stateMutability": "view",
      "type": "function",
      "constant": true
    }
  ],
  "bytecode": "0x608060405234801561000f575f80fd5b503360035f6101000a81548173ffffffffffffffffffffffffffffffffffffffff021916908373ffffffffffffffffffffffffffffffffffffffff1602179055506114f58061005d5f395ff3fe608060405234801561000f575f80fd5b5060043610610060575f3560e01c80631b0c27da1461006457806320faae8e146100945780638203373a146100b0578063a3ec138d146100cc578063b384abef146100fc578063f851a44014610118575b5f80fd5b61007e60048036038101906100799190610854565b610136565b60405161008b9190610a20565b60405180910390f35b6100ae60048036038101906100a99190610c4e565b6102a0565b005b6100ca60048036038101906100c59190610d2f565b61046b565b005b6100e660048036038101906100e19190610dd4565b61059a565b6040516100f39190610e19565b60405180910390f35b61011660048036038101906101119190610e32565b6105b6565b005b6101206107eb565b60405161012d9190610e7f565b60405180910390f35b606060015f8381526020019081526020015f206003015442101561018f576040517f08c379a000000000000000000000000000000000000000000000000000000000815260040161018690610f18565b60405180910390fd5b60015f8381526020019081526020015f20600201805480602002602001604051908101604052809291908181526020015f905b82821015610295578382905f5260205f2090600302016040518060600160405290815f82015481526020016001820180546101fc90610f63565b80601f016020809104026020016040519081016040528092919081815260200182805461022890610f63565b80156102735780601f1061024a57610100808354040283529160200191610273565b820191905f5260205f20905b81548152906001019060200180831161025657829003601f168201915b50505050508152602001600282015481525050815260200190600101906101c2565b505050509050919050565b60035f9054906101000a900473ffffffffffffffffffffffffffffffffffffffff1673ffffffffffffffffffffffffffffffffffffffff163373ffffffffffffffffffffffffffffffffffffffff161461032f576040517f08c379a000000000000000000000000000000000000000000000000000000000815260040161032690610fdd565b60405180910390fd5b60025460015f60025481526020019081526020015f205f01819055508260015f60025481526020019081526020015f20600101908161036e9190611198565b50804261037b9190611294565b60015f60025481526020019081526020015f20600301819055505f5b825181101561044e5760015f60025481526020019081526020015f2060020160405180606001604052808381526020018584815181106103da576103d96112c7565b5b602002602001015181526020015f815250908060018154018082558091505060019003905f5260205f2090600302015f909190919091505f820151815f0155602082015181600101908161042e9190611198565b506040820151816002015550508080610446906112f4565b915050610397565b5060025f815480929190610461906112f4565b9190505550505050565b60035f9054906101000a900473ffffffffffffffffffffffffffffffffffffffff1673ffffffffffffffffffffffffffffffffffffffff163373ffffffffffffffffffffffffffffffffffffffff16146104fa576040517f08c379a00000000000000000000000000000000000000000000000000000000081526004016104f190610fdd565b60405180910390fd5b5f5b828290508110156105955760015f8085858581811061051e5761051d6112c7565b5b90506020020160208101906105339190610dd4565b73ffffffffffffffffffffffffffffffffffffffff1673ffffffffffffffffffffffffffffffffffffffff1681526020019081526020015f205f6101000a81548160ff021916908315150217905550808061058d906112f4565b9150506104fc565b505050565b5f602052805f5260405f205f915054906101000a900460ff1681565b600115155f803373ffffffffffffffffffffffffffffffffffffffff1673ffffffffffffffffffffffffffffffffffffffff1681526020019081526020015f205f9054906101000a900460ff16151514610645576040517f08c379a000000000000000000000000000000000000000000000000000000000815260040161063c90611385565b60405180910390fd5b5f151560045f3373ffffffffffffffffffffffffffffffffffffffff1673ffffffffffffffffffffffffffffffffffffffff1681526020019081526020015f205f8481526020019081526020015f205f9054906101000a900460ff161515146106e3576040517f08c379a00000000000000000000000000000000000000000000000000000000081526004016106da90611413565b60405180910390fd5b60015f8381526020019081526020015f20600301544210610739576040517f08c379a0000000000000000000000000000000000000000000000000000000008152600401610730906114a1565b60405180910390fd5b600160045f3373ffffffffffffffffffffffffffffffffffffffff1673ffffffffffffffffffffffffffffffffffffffff1681526020019081526020015f205f8481526020019081526020015f205f6101000a81548160ff02191690831515021790555060015f8381526020019081526020015f2060020181815481106107c3576107c26112c7565b5b905f5260205f2090600302016002015f8154809291906107e2906112f4565b91905055505050565b60035f9054906101000a900473ffffffffffffffffffffffffffffffffffffffff1681565b5f604051905090565b5f80fd5b5f80fd5b5f819050919050565b61083381610821565b811461083d575f80fd5b50565b5f8135905061084e8161082a565b92915050565b5f6020828403121561086957610868610819565b5b5f61087684828501610840565b91505092915050565b5f81519050919050565b5f82825260208201905092915050565b5f819050602082019050919050565b6108b181610821565b82525050565b5f81519050919050565b5f82825260208201905092915050565b5f5b838110156108ee5780820151818401526020810190506108d3565b5f8484015250505050565b5f601f19601f8301169050919050565b5f610913826108b7565b61091d81856108c1565b935061092d8185602086016108d1565b610936816108f9565b840191505092915050565b5f606083015f8301516109565f8601826108a8565b506020830151848203602086015261096e8282610909565b915050604083015161098360408601826108a8565b508091505092915050565b5f6109998383610941565b905092915050565b5f602082019050919050565b5f6109b78261087f565b6109c18185610889565b9350836020820285016109d385610899565b805f5b85811015610a0e57848403895281516109ef858261098e565b94506109fa836109a1565b925060208a019950506001810190506109d6565b50829750879550505050505092915050565b5f6020820190508181035f830152610a3881846109ad565b905092915050565b5f80fd5b5f80fd5b7f4e487b71000000000000000000000000000000000000000000000000000000005f52604160045260245ffd5b610a7e826108f9565b810181811067ffffffffffffffff82111715610a9d57610a9c610a48565b5b80604052505050565b5f610aaf610810565b9050610abb8282610a75565b919050565b5f67ffffffffffffffff821115610ada57610ad9610a48565b5b610ae3826108f9565b9050602081019050919050565b828183375f83830152505050565b5f610b10610b0b84610ac0565b610aa6565b905082815260208101848484011115610b2c57610b2b610a44565b5b610b37848285610af0565b509392505050565b5f82601f830112610b5357610b52610a40565b5b8135610b63848260208601610afe565b91505092915050565b5f67ffffffffffffffff821115610b8657610b85610a48565b5b602082029050602081019050919050565b5f80fd5b5f610bad610ba884610b6c565b610aa6565b90508083825260208201905060208402830185811115610bd057610bcf610b97565b5b835b81811015610c1757803567ffffffffffffffff811115610bf557610bf4610a40565b5b808601610c028982610b3f565b85526020850194505050602081019050610bd2565b5050509392505050565b5f82601f830112610c3557610c34610a40565b5b8135610c45848260208601610b9b565b91505092915050565b5f805f60608486031215610c6557610c64610819565b5b5f84013567ffffffffffffffff811115610c8257610c8161081d565b5b610c8e86828701610b3f565b935050602084013567ffffffffffffffff811115610caf57610cae61081d565b5b610cbb86828701610c21565b9250506040610ccc86828701610840565b9150509250925092565b5f80fd5b5f8083601f840112610cef57610cee610a40565b5b8235905067ffffffffffffffff811115610d0c57610d0b610cd6565b5b602083019150836020820283011115610d2857610d27610b97565b5b9250929050565b5f8060208385031215610d4557610d44610819565b5b5f83013567ffffffffffffffff811115610d6257610d6161081d565b5b610d6e85828601610cda565b92509250509250929050565b5f73ffffffffffffffffffffffffffffffffffffffff82169050919050565b5f610da382610d7a565b9050919050565b610db381610d99565b8114610dbd575f80fd5b50565b5f81359050610dce81610daa565b92915050565b5f60208284031215610de957610de8610819565b5b5f610df684828501610dc0565b91505092915050565b5f8115159050919050565b610e1381610dff565b82525050565b5f602082019050610e2c5f830184610e0a565b92915050565b5f8060408385031215610e4857610e47610819565b5b5f610e5585828601610840565b9250506020610e6685828601610840565b9150509250929050565b610e7981610d99565b82525050565b5f602082019050610e925f830184610e70565b92915050565b5f82825260208201905092915050565b7f63616e6e6f7420736565207468652062616c6c6f7420726573756c74206265665f8201527f6f72652062616c6c6f7420656e64000000000000000000000000000000000000602082015250565b5f610f02602e83610e98565b9150610f0d82610ea8565b604082019050919050565b5f6020820190508181035f830152610f2f81610ef6565b9050919050565b7f4e487b71000000000000000000000000000000000000000000000000000000005f52602260045260245ffd5b5f6002820490506001821680610f7a57607f821691505b602082108103610f8d57610f8c610f36565b5b50919050565b7f6f6e6c792061646d696e000000000000000000000000000000000000000000005f82015250565b5f610fc7600a83610e98565b9150610fd282610f93565b602082019050919050565b5f6020820190508181035f830152610ff481610fbb565b9050919050565b5f819050815f5260205f209050919050565b5f6020601f8301049050919050565b5f82821b905092915050565b5f600883026110577fffffffffffffffffffffffffffffffffffffffffffffffffffffffffffffffff8261101c565b611061868361101c565b95508019841693508086168417925050509392505050565b5f819050919050565b5f61109c61109761109284610821565b611079565b610821565b9050919050565b5f819050919050565b6110b583611082565b6110c96110c1826110a3565b848454611028565b825550505050565b5f90565b6110dd6110d1565b6110e88184846110ac565b505050565b5b8181101561110b576111005f826110d5565b6001810190506110ee565b5050565b601f8211156111505761112181610ffb565b61112a8461100d565b81016020851015611139578190505b61114d6111458561100d565b8301826110ed565b50505b505050565b5f82821c905092915050565b5f6111705f1984600802611155565b1980831691505092915050565b5f6111888383611161565b9150826002028217905092915050565b6111a1826108b7565b67ffffffffffffffff8111156111ba576111b9610a48565b5b6111c48254610f63565b6111cf82828561110f565b5f60209050601f831160018114611200575f84156111ee578287015190505b6111f8858261117d565b86555061125f565b601f19841661120e86610ffb565b5f5b8281101561123557848901518255600182019150602085019450602081019050611210565b86831015611252578489015161124e601f891682611161565b8355505b6001600288020188555050505b505050505050565b7f4e487b71000000000000000000000000000000000000000000000000000000005f52601160045260245ffd5b5f61129e82610821565b91506112a983610821565b92508282019050808211156112c1576112c0611267565b5b92915050565b7f4e487b71000000000000000000000000000000000000000000000000000000005f52603260045260245ffd5b5f6112fe82610821565b91507fffffffffffffffffffffffffffffffffffffffffffffffffffffffffffffffff82036113305761132f611267565b5b600182019050919050565b7f6f6e6c7920766f746572732063616e20766f74650000000000000000000000005f82015250565b5f61136f601483610e98565b915061137a8261133b565b602082019050919050565b5f6020820190508181035f83015261139c81611363565b9050919050565b7f766f7465722063616e206f6e6c7920766f7465206f6e636520666f72206120625f8201527f616c6c6f74000000000000000000000000000000000000000000000000000000602082015250565b5f6113fd602583610e98565b9150611408826113a3565b604082019050919050565b5f6020820190508181035f83015261142a816113f1565b9050919050565b7f63616e206f6e6c7920766f746520756e74696c2062616c6c6f7420656e6420645f8201527f6174650000000000000000000000000000000000000000000000000000000000602082015250565b5f61148b602383610e98565b915061149682611431565b604082019050919050565b5f6020820190508181035f8301526114b88161147f565b905091905056fea264697066735822122085eefb989cf36fb1d8f82c58b63628dc6172fa5ff3ee412a64fb9d9738d47a1164736f6c63430008150033",
  "immutableReferences": {},
  "source": "// SPDX-License-Identifier: GPL-3.0\r\npragma solidity ^0.8.0;\r\n\r\ncontract Voting {\r\n  mapping(address => bool) public voters;\r\n  struct Choice {\r\n    uint id;\r\n    string name;\r\n    uint votes;\r\n  }\r\n  struct Ballot {\r\n    uint id;\r\n    string name;\r\n    Choice[] choices;\r\n    uint end;\r\n  }\r\n  mapping(uint => Ballot) ballots;\r\n  uint nextBallotId;\r\n  address public admin;\r\n  mapping(address => mapping(uint => bool)) votes;\r\n  \r\n  constructor() {\r\n    admin = msg.sender;\r\n  }\r\n  \r\n  function addVoters(address[] calldata _voters) external onlyAdmin() {\r\n    for(uint i = 0; i < _voters.length; i++) {\r\n        voters[_voters[i]] = true;\r\n    }\r\n  }\r\n\r\n  function createBallot(\r\n    string memory name,\r\n    string[] memory _choices,\r\n    uint offset\r\n    ) public onlyAdmin() {\r\n      ballots[nextBallotId].id = nextBallotId;\r\n      ballots[nextBallotId].name = name;\r\n      ballots[nextBallotId].end = block.timestamp + offset;\r\n      for(uint i = 0; i < _choices.length ; i++) {\r\n        ballots[nextBallotId].choices.push(Choice(i, _choices[i], 0));\r\n      }\r\n      nextBallotId++;\r\n  }\r\n\r\n  function vote(uint ballotId, uint choiceId) external {\r\n    require(voters[msg.sender] == true, 'only voters can vote');\r\n    require(votes[msg.sender][ballotId] == false, 'voter can only vote once for a ballot');\r\n    require(block.timestamp < ballots[ballotId].end, 'can only vote until ballot end date');\r\n    votes[msg.sender][ballotId] = true;\r\n    ballots[ballotId].choices[choiceId].votes++;\r\n  }\r\n\r\n  //If `pragma experimental ABIEncoderV2`\r\n  function results(uint ballotId) \r\n    view \r\n    external \r\n    returns(Choice[] memory) {\r\n    require(block.timestamp >= ballots[ballotId].end, 'cannot see the ballot result before ballot end');\r\n    return ballots[ballotId].choices;\r\n  }\r\n\r\n  modifier onlyAdmin() {\r\n    require(msg.sender == admin, 'only admin');\r\n    _;\r\n  }\r\n}\r\n\r\n\r\n",
  "sourcePath": "D:\\Portfolio - Projects\\Voting_\\contracts\\Voting.sol",
  "compiler": {
    "name": "solc",
    "version": "0.8.21+commit.d9974bed.Emscripten.clang"
  },
  "schemaVersion": "3.4.16",
  "updatedAt": "2024-06-25T12:03:47.655Z",
  "networkType": "ethereum",
  "devdoc": {
    "kind": "dev",
    "methods": {},
    "version": 1
  },
  "userdoc": {
    "kind": "user",
    "methods": {},
    "version": 1
  }
}